{
  "_format": "hh-sol-artifact-1",
  "contractName": "SokuNFT721",
  "sourceName": "contracts/SokuNFT721.sol",
  "abi": [
    {
      "inputs": [
        {
          "internalType": "string",
          "name": "name",
          "type": "string"
        },
        {
          "internalType": "string",
          "name": "symbol",
          "type": "string"
        },
        {
          "internalType": "string",
          "name": "_baseTokenURI",
          "type": "string"
        },
        {
          "internalType": "address",
          "name": "_operator",
          "type": "address"
        }
      ],
      "stateMutability": "nonpayable",
      "type": "constructor"
    },
    {
      "anonymous": false,
      "inputs": [
        {
          "indexed": true,
          "internalType": "address",
          "name": "owner",
          "type": "address"
        },
        {
          "indexed": true,
          "internalType": "address",
          "name": "approved",
          "type": "address"
        },
        {
          "indexed": true,
          "internalType": "uint256",
          "name": "tokenId",
          "type": "uint256"
        }
      ],
      "name": "Approval",
      "type": "event"
    },
    {
      "anonymous": false,
      "inputs": [
        {
          "indexed": true,
          "internalType": "address",
          "name": "owner",
          "type": "address"
        },
        {
          "indexed": true,
          "internalType": "address",
          "name": "operator",
          "type": "address"
        },
        {
          "indexed": false,
          "internalType": "bool",
          "name": "approved",
          "type": "bool"
        }
      ],
      "name": "ApprovalForAll",
      "type": "event"
    },
    {
      "anonymous": false,
      "inputs": [
        {
          "indexed": true,
          "internalType": "address",
          "name": "previousOwner",
          "type": "address"
        },
        {
          "indexed": true,
          "internalType": "address",
          "name": "newOwner",
          "type": "address"
        }
      ],
      "name": "OwnershipTransferred",
      "type": "event"
    },
    {
      "anonymous": false,
      "inputs": [
        {
          "indexed": false,
          "internalType": "address",
          "name": "account",
          "type": "address"
        }
      ],
      "name": "Paused",
      "type": "event"
    },
    {
      "anonymous": false,
      "inputs": [
        {
          "indexed": true,
          "internalType": "bytes32",
          "name": "role",
          "type": "bytes32"
        },
        {
          "indexed": true,
          "internalType": "bytes32",
          "name": "previousAdminRole",
          "type": "bytes32"
        },
        {
          "indexed": true,
          "internalType": "bytes32",
          "name": "newAdminRole",
          "type": "bytes32"
        }
      ],
      "name": "RoleAdminChanged",
      "type": "event"
    },
    {
      "anonymous": false,
      "inputs": [
        {
          "indexed": true,
          "internalType": "bytes32",
          "name": "role",
          "type": "bytes32"
        },
        {
          "indexed": true,
          "internalType": "address",
          "name": "account",
          "type": "address"
        },
        {
          "indexed": true,
          "internalType": "address",
          "name": "sender",
          "type": "address"
        }
      ],
      "name": "RoleGranted",
      "type": "event"
    },
    {
      "anonymous": false,
      "inputs": [
        {
          "indexed": true,
          "internalType": "bytes32",
          "name": "role",
          "type": "bytes32"
        },
        {
          "indexed": true,
          "internalType": "address",
          "name": "account",
          "type": "address"
        },
        {
          "indexed": true,
          "internalType": "address",
          "name": "sender",
          "type": "address"
        }
      ],
      "name": "RoleRevoked",
      "type": "event"
    },
    {
      "anonymous": false,
      "inputs": [
        {
          "indexed": true,
          "internalType": "address",
          "name": "from",
          "type": "address"
        },
        {
          "indexed": true,
          "internalType": "address",
          "name": "to",
          "type": "address"
        },
        {
          "indexed": true,
          "internalType": "uint256",
          "name": "tokenId",
          "type": "uint256"
        }
      ],
      "name": "Transfer",
      "type": "event"
    },
    {
      "anonymous": false,
      "inputs": [
        {
          "indexed": false,
          "internalType": "address",
          "name": "account",
          "type": "address"
        }
      ],
      "name": "Unpaused",
      "type": "event"
    },
    {
      "inputs": [],
      "name": "DEFAULT_ADMIN_ROLE",
      "outputs": [
        {
          "internalType": "bytes32",
          "name": "",
          "type": "bytes32"
        }
      ],
      "stateMutability": "view",
      "type": "function"
    },
    {
      "inputs": [
        {
          "internalType": "address",
          "name": "to",
          "type": "address"
        },
        {
          "internalType": "uint256",
          "name": "tokenId",
          "type": "uint256"
        }
      ],
      "name": "approve",
      "outputs": [],
      "stateMutability": "nonpayable",
      "type": "function"
    },
    {
      "inputs": [
        {
          "internalType": "address",
          "name": "owner",
          "type": "address"
        }
      ],
      "name": "balanceOf",
      "outputs": [
        {
          "internalType": "uint256",
          "name": "",
          "type": "uint256"
        }
      ],
      "stateMutability": "view",
      "type": "function"
    },
    {
      "inputs": [],
      "name": "baseURI",
      "outputs": [
        {
          "internalType": "string",
          "name": "",
          "type": "string"
        }
      ],
      "stateMutability": "view",
      "type": "function"
    },
    {
      "inputs": [
        {
          "internalType": "uint256",
          "name": "tokenId",
          "type": "uint256"
        }
      ],
      "name": "burn",
      "outputs": [],
      "stateMutability": "nonpayable",
      "type": "function"
    },
    {
      "inputs": [
        {
          "internalType": "uint256",
          "name": "tokenId",
          "type": "uint256"
        }
      ],
      "name": "getApproved",
      "outputs": [
        {
          "internalType": "address",
          "name": "",
          "type": "address"
        }
      ],
      "stateMutability": "view",
      "type": "function"
    },
    {
      "inputs": [
        {
          "internalType": "bytes32",
          "name": "role",
          "type": "bytes32"
        }
      ],
      "name": "getRoleAdmin",
      "outputs": [
        {
          "internalType": "bytes32",
          "name": "",
          "type": "bytes32"
        }
      ],
      "stateMutability": "view",
      "type": "function"
    },
    {
      "inputs": [
        {
          "internalType": "bytes32",
          "name": "role",
          "type": "bytes32"
        },
        {
          "internalType": "address",
          "name": "account",
          "type": "address"
        }
      ],
      "name": "grantRole",
      "outputs": [],
      "stateMutability": "nonpayable",
      "type": "function"
    },
    {
      "inputs": [
        {
          "internalType": "bytes32",
          "name": "role",
          "type": "bytes32"
        },
        {
          "internalType": "address",
          "name": "account",
          "type": "address"
        }
      ],
      "name": "hasRole",
      "outputs": [
        {
          "internalType": "bool",
          "name": "",
          "type": "bool"
        }
      ],
      "stateMutability": "view",
      "type": "function"
    },
    {
      "inputs": [
        {
          "internalType": "address",
          "name": "owner",
          "type": "address"
        },
        {
          "internalType": "address",
          "name": "operator",
          "type": "address"
        }
      ],
      "name": "isApprovedForAll",
      "outputs": [
        {
          "internalType": "bool",
          "name": "",
          "type": "bool"
        }
      ],
      "stateMutability": "view",
      "type": "function"
    },
    {
      "inputs": [
        {
          "internalType": "string",
          "name": "_tokenURI",
          "type": "string"
        },
        {
          "internalType": "uint96",
          "name": "_royaltyFee",
          "type": "uint96"
        },
        {
          "components": [
            {
              "internalType": "uint8",
              "name": "v",
              "type": "uint8"
            },
            {
              "internalType": "bytes32",
              "name": "r",
              "type": "bytes32"
            },
            {
              "internalType": "bytes32",
              "name": "s",
              "type": "bytes32"
            },
            {
              "internalType": "uint256",
              "name": "nonce",
              "type": "uint256"
            }
          ],
          "internalType": "struct SokuNFT721.Sign",
          "name": "sign",
          "type": "tuple"
        }
      ],
      "name": "mint",
      "outputs": [
        {
          "internalType": "uint256",
          "name": "_tokenId",
          "type": "uint256"
        }
      ],
      "stateMutability": "nonpayable",
      "type": "function"
    },
    {
      "inputs": [
        {
          "internalType": "address",
          "name": "from",
          "type": "address"
        },
        {
          "internalType": "address",
          "name": "to",
          "type": "address"
        },
        {
          "internalType": "string",
          "name": "_tokenURI",
          "type": "string"
        },
        {
          "internalType": "uint96",
          "name": "_royaltyFee",
          "type": "uint96"
        }
      ],
      "name": "mintAndTransfer",
      "outputs": [
        {
          "internalType": "uint256",
          "name": "_tokenId",
          "type": "uint256"
        }
      ],
      "stateMutability": "nonpayable",
      "type": "function"
    },
    {
      "inputs": [],
      "name": "name",
      "outputs": [
        {
          "internalType": "string",
          "name": "",
          "type": "string"
        }
      ],
      "stateMutability": "view",
      "type": "function"
    },
    {
      "inputs": [],
      "name": "operator",
      "outputs": [
        {
          "internalType": "address",
          "name": "",
          "type": "address"
        }
      ],
      "stateMutability": "view",
      "type": "function"
    },
    {
      "inputs": [],
      "name": "owner",
      "outputs": [
        {
          "internalType": "address",
          "name": "",
          "type": "address"
        }
      ],
      "stateMutability": "view",
      "type": "function"
    },
    {
      "inputs": [
        {
          "internalType": "uint256",
          "name": "tokenId",
          "type": "uint256"
        }
      ],
      "name": "ownerOf",
      "outputs": [
        {
          "internalType": "address",
          "name": "",
          "type": "address"
        }
      ],
      "stateMutability": "view",
      "type": "function"
    },
    {
      "inputs": [],
      "name": "paused",
      "outputs": [
        {
          "internalType": "bool",
          "name": "",
          "type": "bool"
        }
      ],
      "stateMutability": "view",
      "type": "function"
    },
    {
      "inputs": [
        {
          "internalType": "bytes32",
          "name": "role",
          "type": "bytes32"
        },
        {
          "internalType": "address",
          "name": "account",
          "type": "address"
        }
      ],
      "name": "renounceRole",
      "outputs": [],
      "stateMutability": "nonpayable",
      "type": "function"
    },
    {
      "inputs": [
        {
          "internalType": "bytes32",
          "name": "role",
          "type": "bytes32"
        },
        {
          "internalType": "address",
          "name": "account",
          "type": "address"
        }
      ],
      "name": "revokeRole",
      "outputs": [],
      "stateMutability": "nonpayable",
      "type": "function"
    },
    {
      "inputs": [
        {
          "internalType": "uint256",
          "name": "_tokenId",
          "type": "uint256"
        },
        {
          "internalType": "uint256",
          "name": "_salePrice",
          "type": "uint256"
        }
      ],
      "name": "royaltyInfo",
      "outputs": [
        {
          "internalType": "address",
          "name": "",
          "type": "address"
        },
        {
          "internalType": "uint256",
          "name": "",
          "type": "uint256"
        }
      ],
      "stateMutability": "view",
      "type": "function"
    },
    {
      "inputs": [
        {
          "internalType": "address",
          "name": "from",
          "type": "address"
        },
        {
          "internalType": "address",
          "name": "to",
          "type": "address"
        },
        {
          "internalType": "uint256",
          "name": "tokenId",
          "type": "uint256"
        }
      ],
      "name": "safeTransferFrom",
      "outputs": [],
      "stateMutability": "nonpayable",
      "type": "function"
    },
    {
      "inputs": [
        {
          "internalType": "address",
          "name": "from",
          "type": "address"
        },
        {
          "internalType": "address",
          "name": "to",
          "type": "address"
        },
        {
          "internalType": "uint256",
          "name": "tokenId",
          "type": "uint256"
        },
        {
          "internalType": "bytes",
          "name": "data",
          "type": "bytes"
        }
      ],
      "name": "safeTransferFrom",
      "outputs": [],
      "stateMutability": "nonpayable",
      "type": "function"
    },
    {
      "inputs": [
        {
          "internalType": "address",
          "name": "operator",
          "type": "address"
        },
        {
          "internalType": "bool",
          "name": "approved",
          "type": "bool"
        }
      ],
      "name": "setApprovalForAll",
      "outputs": [],
      "stateMutability": "nonpayable",
      "type": "function"
    },
    {
      "inputs": [
        {
          "internalType": "string",
          "name": "_baseTokenURI",
          "type": "string"
        }
      ],
      "name": "setBaseURI",
      "outputs": [],
      "stateMutability": "nonpayable",
      "type": "function"
    },
    {
      "inputs": [
        {
          "internalType": "bytes4",
          "name": "interfaceId",
          "type": "bytes4"
        }
      ],
      "name": "supportsInterface",
      "outputs": [
        {
          "internalType": "bool",
          "name": "",
          "type": "bool"
        }
      ],
      "stateMutability": "view",
      "type": "function"
    },
    {
      "inputs": [],
      "name": "symbol",
      "outputs": [
        {
          "internalType": "string",
          "name": "",
          "type": "string"
        }
      ],
      "stateMutability": "view",
      "type": "function"
    },
    {
      "inputs": [
        {
          "internalType": "uint256",
          "name": "index",
          "type": "uint256"
        }
      ],
      "name": "tokenByIndex",
      "outputs": [
        {
          "internalType": "uint256",
          "name": "",
          "type": "uint256"
        }
      ],
      "stateMutability": "view",
      "type": "function"
    },
    {
      "inputs": [
        {
          "internalType": "address",
          "name": "owner",
          "type": "address"
        },
        {
          "internalType": "uint256",
          "name": "index",
          "type": "uint256"
        }
      ],
      "name": "tokenOfOwnerByIndex",
      "outputs": [
        {
          "internalType": "uint256",
          "name": "",
          "type": "uint256"
        }
      ],
      "stateMutability": "view",
      "type": "function"
    },
    {
      "inputs": [
        {
          "internalType": "uint256",
          "name": "tokenId",
          "type": "uint256"
        }
      ],
      "name": "tokenURI",
      "outputs": [
        {
          "internalType": "string",
          "name": "",
          "type": "string"
        }
      ],
      "stateMutability": "view",
      "type": "function"
    },
    {
      "inputs": [],
      "name": "totalSupply",
      "outputs": [
        {
          "internalType": "uint256",
          "name": "",
          "type": "uint256"
        }
      ],
      "stateMutability": "view",
      "type": "function"
    },
    {
      "inputs": [
        {
          "internalType": "address",
          "name": "from",
          "type": "address"
        },
        {
          "internalType": "address",
          "name": "to",
          "type": "address"
        },
        {
          "internalType": "uint256",
          "name": "tokenId",
          "type": "uint256"
        }
      ],
      "name": "transferFrom",
      "outputs": [],
      "stateMutability": "nonpayable",
      "type": "function"
    },
    {
      "inputs": [
        {
          "internalType": "address",
          "name": "newOwner",
          "type": "address"
        }
      ],
      "name": "transferOwnership",
      "outputs": [
        {
          "internalType": "bool",
          "name": "",
          "type": "bool"
        }
      ],
      "stateMutability": "nonpayable",
      "type": "function"
    }
  ],
  "bytecode": "0x60806040523480156200001157600080fd5b5060405162005e0638038062005e06833981810160405281019062000037919062000548565b838381600090816200004a919062000862565b5080600190816200005c919062000862565b5050506000600d60006101000a81548160ff02191690831515021790555081600f90816200008b919062000862565b506200009c620001bf60201b60201c565b601060006101000a81548173ffffffffffffffffffffffffffffffffffffffff021916908373ffffffffffffffffffffffffffffffffffffffff16021790555080601260006101000a81548173ffffffffffffffffffffffffffffffffffffffff021916908373ffffffffffffffffffffffffffffffffffffffff1602179055506200014f7f41444d494e5f524f4c450000000000000000000000000000000000000000000033620001c760201b60201c565b620001a37f4f50455241544f525f524f4c4500000000000000000000000000000000000000601260009054906101000a900473ffffffffffffffffffffffffffffffffffffffff16620001c760201b60201c565b620001b5600e620001dd60201b60201c565b5050505062000949565b600033905090565b620001d98282620001f360201b60201c565b5050565b6001816000016000828254019250508190555050565b620002058282620002e560201b60201c565b620002e1576001600c600084815260200190815260200160002060000160008373ffffffffffffffffffffffffffffffffffffffff1673ffffffffffffffffffffffffffffffffffffffff16815260200190815260200160002060006101000a81548160ff02191690831515021790555062000286620001bf60201b60201c565b73ffffffffffffffffffffffffffffffffffffffff168173ffffffffffffffffffffffffffffffffffffffff16837f2f8788117e7eff1d82e926ec794901d17c78024a50270940304540a733656f0d60405160405180910390a45b5050565b6000600c600084815260200190815260200160002060000160008373ffffffffffffffffffffffffffffffffffffffff1673ffffffffffffffffffffffffffffffffffffffff16815260200190815260200160002060009054906101000a900460ff16905092915050565b6000604051905090565b600080fd5b600080fd5b600080fd5b600080fd5b6000601f19601f8301169050919050565b7f4e487b7100000000000000000000000000000000000000000000000000000000600052604160045260246000fd5b620003b9826200036e565b810181811067ffffffffffffffff82111715620003db57620003da6200037f565b5b80604052505050565b6000620003f062000350565b9050620003fe8282620003ae565b919050565b600067ffffffffffffffff8211156200042157620004206200037f565b5b6200042c826200036e565b9050602081019050919050565b60005b83811015620004595780820151818401526020810190506200043c565b60008484015250505050565b60006200047c620004768462000403565b620003e4565b9050828152602081018484840111156200049b576200049a62000369565b5b620004a884828562000439565b509392505050565b600082601f830112620004c857620004c762000364565b5b8151620004da84826020860162000465565b91505092915050565b600073ffffffffffffffffffffffffffffffffffffffff82169050919050565b60006200051082620004e3565b9050919050565b620005228162000503565b81146200052e57600080fd5b50565b600081519050620005428162000517565b92915050565b600080600080608085870312156200056557620005646200035a565b5b600085015167ffffffffffffffff8111156200058657620005856200035f565b5b6200059487828801620004b0565b945050602085015167ffffffffffffffff811115620005b857620005b76200035f565b5b620005c687828801620004b0565b935050604085015167ffffffffffffffff811115620005ea57620005e96200035f565b5b620005f887828801620004b0565b92505060606200060b8782880162000531565b91505092959194509250565b600081519050919050565b7f4e487b7100000000000000000000000000000000000000000000000000000000600052602260045260246000fd5b600060028204905060018216806200066a57607f821691505b60208210810362000680576200067f62000622565b5b50919050565b60008190508160005260206000209050919050565b60006020601f8301049050919050565b600082821b905092915050565b600060088302620006ea7fffffffffffffffffffffffffffffffffffffffffffffffffffffffffffffffff82620006ab565b620006f68683620006ab565b95508019841693508086168417925050509392505050565b6000819050919050565b6000819050919050565b6000620007436200073d62000737846200070e565b62000718565b6200070e565b9050919050565b6000819050919050565b6200075f8362000722565b620007776200076e826200074a565b848454620006b8565b825550505050565b600090565b6200078e6200077f565b6200079b81848462000754565b505050565b5b81811015620007c357620007b760008262000784565b600181019050620007a1565b5050565b601f8211156200081257620007dc8162000686565b620007e7846200069b565b81016020851015620007f7578190505b6200080f62000806856200069b565b830182620007a0565b50505b505050565b600082821c905092915050565b6000620008376000198460080262000817565b1980831691505092915050565b600062000852838362000824565b9150826002028217905092915050565b6200086d8262000617565b67ffffffffffffffff8111156200088957620008886200037f565b5b62000895825462000651565b620008a2828285620007c7565b600060209050601f831160018114620008da5760008415620008c5578287015190505b620008d1858262000844565b86555062000941565b601f198416620008ea8662000686565b60005b828110156200091457848901518255600182019150602085019450602081019050620008ed565b8683101562000934578489015162000930601f89168262000824565b8355505b6001600288020188555050505b505050505050565b6154ad80620009596000396000f3fe608060405234801561001057600080fd5b50600436106101f05760003560e01c8063570ca7351161010f57806395d89b41116100a2578063c87b56dd11610071578063c87b56dd146105f2578063d547741f14610622578063e985e9c51461063e578063f2fde38b1461066e576101f0565b806395d89b411461057e578063a217fddf1461059c578063a22cb465146105ba578063b88d4fde146105d6576101f0565b806370a08231116100de57806370a08231146104d0578063831936ef146105005780638da5cb5b1461053057806391d148541461054e576101f0565b8063570ca735146104465780635c975abb146104645780636352211e146104825780636c0360eb146104b2576101f0565b80632f2ff15d1161018757806342842e0e1161015657806342842e0e146103c257806342966c68146103de5780634f6ccce7146103fa57806355f804b31461042a576101f0565b80632f2ff15d1461032a5780632f745c591461034657806336568abe14610376578063394f54bf14610392576101f0565b806318160ddd116101c357806318160ddd1461028f57806323b872dd146102ad578063248a9ca3146102c95780632a55205a146102f9576101f0565b806301ffc9a7146101f557806306fdde0314610225578063081812fc14610243578063095ea7b314610273575b600080fd5b61020f600480360381019061020a91906136c6565b61069e565b60405161021c919061370e565b60405180910390f35b61022d6106b0565b60405161023a91906137b9565b60405180910390f35b61025d60048036038101906102589190613811565b610742565b60405161026a919061387f565b60405180910390f35b61028d600480360381019061028891906138c6565b610788565b005b61029761089f565b6040516102a49190613915565b60405180910390f35b6102c760048036038101906102c29190613930565b6108ac565b005b6102e360048036038101906102de91906139b9565b61090c565b6040516102f091906139f5565b60405180910390f35b610313600480360381019061030e9190613a10565b61092c565b604051610321929190613a50565b60405180910390f35b610344600480360381019061033f9190613a79565b610a3a565b005b610360600480360381019061035b91906138c6565b610a5b565b60405161036d9190613915565b60405180910390f35b610390600480360381019061038b9190613a79565b610b00565b005b6103ac60048036038101906103a79190613c32565b610b83565b6040516103b99190613915565b60405180910390f35b6103dc60048036038101906103d79190613930565b610c67565b005b6103f860048036038101906103f39190613811565b610c87565b005b610414600480360381019061040f9190613811565b610ce3565b6040516104219190613915565b60405180910390f35b610444600480360381019061043f9190613cb5565b610d54565b005b61044e610d92565b60405161045b919061387f565b60405180910390f35b61046c610db8565b604051610479919061370e565b60405180910390f35b61049c60048036038101906104979190613811565b610dcf565b6040516104a9919061387f565b60405180910390f35b6104ba610e55565b6040516104c791906137b9565b60405180910390f35b6104ea60048036038101906104e59190613cfe565b610e64565b6040516104f79190613915565b60405180910390f35b61051a60048036038101906105159190613d4f565b610f1b565b6040516105279190613915565b60405180910390f35b610538611017565b604051610545919061387f565b60405180910390f35b61056860048036038101906105639190613a79565b61103d565b604051610575919061370e565b60405180910390f35b6105866110a8565b60405161059391906137b9565b60405180910390f35b6105a461113a565b6040516105b191906139f5565b60405180910390f35b6105d460048036038101906105cf9190613dea565b611141565b005b6105f060048036038101906105eb9190613ecb565b611157565b005b61060c60048036038101906106079190613811565b6111b9565b60405161061991906137b9565b60405180910390f35b61063c60048036038101906106379190613a79565b6111cb565b005b61065860048036038101906106539190613f4e565b6111ec565b604051610665919061370e565b60405180910390f35b61068860048036038101906106839190613cfe565b611280565b604051610695919061370e565b60405180910390f35b60006106a982611458565b9050919050565b6060600080546106bf90613fbd565b80601f01602080910402602001604051908101604052809291908181526020018280546106eb90613fbd565b80156107385780601f1061070d57610100808354040283529160200191610738565b820191906000526020600020905b81548152906001019060200180831161071b57829003601f168201915b5050505050905090565b600061074d826114d2565b6004600083815260200190815260200160002060009054906101000a900473ffffffffffffffffffffffffffffffffffffffff169050919050565b600061079382610dcf565b90508073ffffffffffffffffffffffffffffffffffffffff168373ffffffffffffffffffffffffffffffffffffffff1603610803576040517f08c379a00000000000000000000000000000000000000000000000000000000081526004016107fa90614060565b60405180910390fd5b8073ffffffffffffffffffffffffffffffffffffffff1661082261151d565b73ffffffffffffffffffffffffffffffffffffffff16148061085157506108508161084b61151d565b6111ec565b5b610890576040517f08c379a0000000000000000000000000000000000000000000000000000000008152600401610887906140f2565b60405180910390fd5b61089a8383611525565b505050565b6000600880549050905090565b6108bd6108b761151d565b826115de565b6108fc576040517f08c379a00000000000000000000000000000000000000000000000000000000081526004016108f390614184565b60405180910390fd5b610907838383611673565b505050565b6000600c6000838152602001908152602001600020600101549050919050565b6000806000600b60008681526020019081526020016000206040518060400160405290816000820160009054906101000a900473ffffffffffffffffffffffffffffffffffffffff1673ffffffffffffffffffffffffffffffffffffffff1673ffffffffffffffffffffffffffffffffffffffff1681526020016000820160149054906101000a90046bffffffffffffffffffffffff166bffffffffffffffffffffffff166bffffffffffffffffffffffff1681525050905060006109ef61196c565b6bffffffffffffffffffffffff1682602001516bffffffffffffffffffffffff1686610a1b91906141d3565b610a259190614244565b90508160000151819350935050509250929050565b610a438261090c565b610a4c81611976565b610a56838361198a565b505050565b6000610a6683610e64565b8210610aa7576040517f08c379a0000000000000000000000000000000000000000000000000000000008152600401610a9e906142e7565b60405180910390fd5b600660008473ffffffffffffffffffffffffffffffffffffffff1673ffffffffffffffffffffffffffffffffffffffff168152602001908152602001600020600083815260200190815260200160002054905092915050565b610b0861151d565b73ffffffffffffffffffffffffffffffffffffffff168173ffffffffffffffffffffffffffffffffffffffff1614610b75576040517f08c379a0000000000000000000000000000000000000000000000000000000008152600401610b6c90614379565b60405180910390fd5b610b7f8282611a6b565b5050565b60007f4f50455241544f525f524f4c4500000000000000000000000000000000000000610baf81611976565b610bdb86601260009054906101000a900473ffffffffffffffffffffffffffffffffffffffff166111ec565b610c0e57610c0d86601260009054906101000a900473ffffffffffffffffffffffffffffffffffffffff166001611b4d565b5b610c18600e611cb9565b9150610c248683611cc7565b610c2e8285611ee4565b610c39828785611f51565b610c5486868460405180602001604052806000815250611157565b610c5e600e6120f8565b50949350505050565b610c8283838360405180602001604052806000815250611157565b505050565b610c98610c9261151d565b826115de565b610cd7576040517f08c379a0000000000000000000000000000000000000000000000000000000008152600401610cce90614184565b60405180910390fd5b610ce08161210e565b50565b6000610ced61089f565b8210610d2e576040517f08c379a0000000000000000000000000000000000000000000000000000000008152600401610d259061440b565b60405180910390fd5b60088281548110610d4257610d4161442b565b5b90600052602060002001549050919050565b7f41444d494e5f524f4c4500000000000000000000000000000000000000000000610d7e81611976565b81600f9081610d8d9190614606565b505050565b601260009054906101000a900473ffffffffffffffffffffffffffffffffffffffff1681565b6000600d60009054906101000a900460ff16905090565b600080610ddb83612123565b9050600073ffffffffffffffffffffffffffffffffffffffff168173ffffffffffffffffffffffffffffffffffffffff1603610e4c576040517f08c379a0000000000000000000000000000000000000000000000000000000008152600401610e4390614724565b60405180910390fd5b80915050919050565b6060610e5f612160565b905090565b60008073ffffffffffffffffffffffffffffffffffffffff168273ffffffffffffffffffffffffffffffffffffffff1603610ed4576040517f08c379a0000000000000000000000000000000000000000000000000000000008152600401610ecb906147b6565b60405180910390fd5b600360008373ffffffffffffffffffffffffffffffffffffffff1673ffffffffffffffffffffffffffffffffffffffff168152602001908152602001600020549050919050565b6000601160008360600135815260200190815260200160002060009054906101000a900460ff1615610f82576040517f08c379a0000000000000000000000000000000000000000000000000000000008152600401610f7990614822565b60405180910390fd5b6001601160008460600135815260200190815260200160002060006101000a81548160ff021916908315150217905550610fcd843384803603810190610fc891906148f8565b6121f2565b610fd7600e611cb9565b9050610fea610fe461151d565b82611cc7565b610ff48185611ee4565b6110068161100061151d565b85611f51565b611010600e6120f8565b9392505050565b601060009054906101000a900473ffffffffffffffffffffffffffffffffffffffff1681565b6000600c600084815260200190815260200160002060000160008373ffffffffffffffffffffffffffffffffffffffff1673ffffffffffffffffffffffffffffffffffffffff16815260200190815260200160002060009054906101000a900460ff16905092915050565b6060600180546110b790613fbd565b80601f01602080910402602001604051908101604052809291908181526020018280546110e390613fbd565b80156111305780601f1061110557610100808354040283529160200191611130565b820191906000526020600020905b81548152906001019060200180831161111357829003601f168201915b5050505050905090565b6000801b81565b61115361114c61151d565b8383611b4d565b5050565b61116861116261151d565b836115de565b6111a7576040517f08c379a000000000000000000000000000000000000000000000000000000000815260040161119e90614184565b60405180910390fd5b6111b38484848461233d565b50505050565b60606111c482612399565b9050919050565b6111d48261090c565b6111dd81611976565b6111e78383611a6b565b505050565b6000600560008473ffffffffffffffffffffffffffffffffffffffff1673ffffffffffffffffffffffffffffffffffffffff16815260200190815260200160002060008373ffffffffffffffffffffffffffffffffffffffff1673ffffffffffffffffffffffffffffffffffffffff16815260200190815260200160002060009054906101000a900460ff16905092915050565b60007f41444d494e5f524f4c45000000000000000000000000000000000000000000006112ac81611976565b600073ffffffffffffffffffffffffffffffffffffffff168373ffffffffffffffffffffffffffffffffffffffff160361131b576040517f08c379a000000000000000000000000000000000000000000000000000000000815260040161131290614997565b60405180910390fd5b6113677f41444d494e5f524f4c4500000000000000000000000000000000000000000000601060009054906101000a900473ffffffffffffffffffffffffffffffffffffffff16611a6b565b8273ffffffffffffffffffffffffffffffffffffffff16601060009054906101000a900473ffffffffffffffffffffffffffffffffffffffff1673ffffffffffffffffffffffffffffffffffffffff167f8be0079c531659141344cd1fd0a4f28419497f9722a3daafe3b4186f6b6457e060405160405180910390a382601060006101000a81548173ffffffffffffffffffffffffffffffffffffffff021916908373ffffffffffffffffffffffffffffffffffffffff16021790555061144e7f41444d494e5f524f4c4500000000000000000000000000000000000000000000846124ab565b6001915050919050565b60007f7965db0b000000000000000000000000000000000000000000000000000000007bffffffffffffffffffffffffffffffffffffffffffffffffffffffff1916827bffffffffffffffffffffffffffffffffffffffffffffffffffffffff191614806114cb57506114ca826124b9565b5b9050919050565b6114db81612533565b61151a576040517f08c379a000000000000000000000000000000000000000000000000000000000815260040161151190614724565b60405180910390fd5b50565b600033905090565b816004600083815260200190815260200160002060006101000a81548173ffffffffffffffffffffffffffffffffffffffff021916908373ffffffffffffffffffffffffffffffffffffffff160217905550808273ffffffffffffffffffffffffffffffffffffffff1661159883610dcf565b73ffffffffffffffffffffffffffffffffffffffff167f8c5be1e5ebec7d5bd14f71427d1e84f3dd0314c0f7b2291e5b200ac8c7c3b92560405160405180910390a45050565b6000806115ea83610dcf565b90508073ffffffffffffffffffffffffffffffffffffffff168473ffffffffffffffffffffffffffffffffffffffff16148061162c575061162b81856111ec565b5b8061166a57508373ffffffffffffffffffffffffffffffffffffffff1661165284610742565b73ffffffffffffffffffffffffffffffffffffffff16145b91505092915050565b8273ffffffffffffffffffffffffffffffffffffffff1661169382610dcf565b73ffffffffffffffffffffffffffffffffffffffff16146116e9576040517f08c379a00000000000000000000000000000000000000000000000000000000081526004016116e090614a29565b60405180910390fd5b600073ffffffffffffffffffffffffffffffffffffffff168273ffffffffffffffffffffffffffffffffffffffff1603611758576040517f08c379a000000000000000000000000000000000000000000000000000000000815260040161174f90614abb565b60405180910390fd5b6117658383836001612574565b8273ffffffffffffffffffffffffffffffffffffffff1661178582610dcf565b73ffffffffffffffffffffffffffffffffffffffff16146117db576040517f08c379a00000000000000000000000000000000000000000000000000000000081526004016117d290614a29565b60405180910390fd5b6004600082815260200190815260200160002060006101000a81549073ffffffffffffffffffffffffffffffffffffffff02191690556001600360008573ffffffffffffffffffffffffffffffffffffffff1673ffffffffffffffffffffffffffffffffffffffff168152602001908152602001600020600082825403925050819055506001600360008473ffffffffffffffffffffffffffffffffffffffff1673ffffffffffffffffffffffffffffffffffffffff16815260200190815260200160002060008282540192505081905550816002600083815260200190815260200160002060006101000a81548173ffffffffffffffffffffffffffffffffffffffff021916908373ffffffffffffffffffffffffffffffffffffffff160217905550808273ffffffffffffffffffffffffffffffffffffffff168473ffffffffffffffffffffffffffffffffffffffff167fddf252ad1be2c89b69c2b068fc378daa952ba7f163c4a11628f55a4df523b3ef60405160405180910390a46119678383836001612586565b505050565b60006103e8905090565b6119878161198261151d565b61258c565b50565b611994828261103d565b611a67576001600c600084815260200190815260200160002060000160008373ffffffffffffffffffffffffffffffffffffffff1673ffffffffffffffffffffffffffffffffffffffff16815260200190815260200160002060006101000a81548160ff021916908315150217905550611a0c61151d565b73ffffffffffffffffffffffffffffffffffffffff168173ffffffffffffffffffffffffffffffffffffffff16837f2f8788117e7eff1d82e926ec794901d17c78024a50270940304540a733656f0d60405160405180910390a45b5050565b611a75828261103d565b15611b49576000600c600084815260200190815260200160002060000160008373ffffffffffffffffffffffffffffffffffffffff1673ffffffffffffffffffffffffffffffffffffffff16815260200190815260200160002060006101000a81548160ff021916908315150217905550611aee61151d565b73ffffffffffffffffffffffffffffffffffffffff168173ffffffffffffffffffffffffffffffffffffffff16837ff6391f5c32d9c69d2a47ea670b442974b53935d1edc7fd64eb21e047a839171b60405160405180910390a45b5050565b8173ffffffffffffffffffffffffffffffffffffffff168373ffffffffffffffffffffffffffffffffffffffff1603611bbb576040517f08c379a0000000000000000000000000000000000000000000000000000000008152600401611bb290614b27565b60405180910390fd5b80600560008573ffffffffffffffffffffffffffffffffffffffff1673ffffffffffffffffffffffffffffffffffffffff16815260200190815260200160002060008473ffffffffffffffffffffffffffffffffffffffff1673ffffffffffffffffffffffffffffffffffffffff16815260200190815260200160002060006101000a81548160ff0219169083151502179055508173ffffffffffffffffffffffffffffffffffffffff168373ffffffffffffffffffffffffffffffffffffffff167f17307eab39ab6107e8899845ad3d59bd9653f200f220920489ca2b5937696c3183604051611cac919061370e565b60405180910390a3505050565b600081600001549050919050565b600073ffffffffffffffffffffffffffffffffffffffff168273ffffffffffffffffffffffffffffffffffffffff1603611d36576040517f08c379a0000000000000000000000000000000000000000000000000000000008152600401611d2d90614b93565b60405180910390fd5b611d3f81612533565b15611d7f576040517f08c379a0000000000000000000000000000000000000000000000000000000008152600401611d7690614bff565b60405180910390fd5b611d8d600083836001612574565b611d9681612533565b15611dd6576040517f08c379a0000000000000000000000000000000000000000000000000000000008152600401611dcd90614bff565b60405180910390fd5b6001600360008473ffffffffffffffffffffffffffffffffffffffff1673ffffffffffffffffffffffffffffffffffffffff16815260200190815260200160002060008282540192505081905550816002600083815260200190815260200160002060006101000a81548173ffffffffffffffffffffffffffffffffffffffff021916908373ffffffffffffffffffffffffffffffffffffffff160217905550808273ffffffffffffffffffffffffffffffffffffffff16600073ffffffffffffffffffffffffffffffffffffffff167fddf252ad1be2c89b69c2b068fc378daa952ba7f163c4a11628f55a4df523b3ef60405160405180910390a4611ee0600083836001612586565b5050565b611eed82612533565b611f2c576040517f08c379a0000000000000000000000000000000000000000000000000000000008152600401611f2390614c91565b60405180910390fd5b80600a60008481526020019081526020016000209081611f4c9190614606565b505050565b611f5961196c565b6bffffffffffffffffffffffff16816bffffffffffffffffffffffff161115611fb7576040517f08c379a0000000000000000000000000000000000000000000000000000000008152600401611fae90614d23565b60405180910390fd5b600073ffffffffffffffffffffffffffffffffffffffff168273ffffffffffffffffffffffffffffffffffffffff1603612026576040517f08c379a000000000000000000000000000000000000000000000000000000000815260040161201d90614d8f565b60405180910390fd5b60405180604001604052808373ffffffffffffffffffffffffffffffffffffffff168152602001826bffffffffffffffffffffffff16815250600b600085815260200190815260200160002060008201518160000160006101000a81548173ffffffffffffffffffffffffffffffffffffffff021916908373ffffffffffffffffffffffffffffffffffffffff16021790555060208201518160000160146101000a8154816bffffffffffffffffffffffff02191690836bffffffffffffffffffffffff160217905550905050505050565b6001816000016000828254019250508190555050565b61211781612611565b61212081612670565b50565b60006002600083815260200190815260200160002060009054906101000a900473ffffffffffffffffffffffffffffffffffffffff169050919050565b6060600f805461216f90613fbd565b80601f016020809104026020016040519081016040528092919081815260200182805461219b90613fbd565b80156121e85780601f106121bd576101008083540402835291602001916121e8565b820191906000526020600020905b8154815290600101906020018083116121cb57829003601f168201915b5050505050905090565b6000308385846060015160405160200161220f9493929190614eb1565b60405160208183030381529060405280519060200120905060018160405160200161223a9190614f68565b604051602081830303815290604052805190602001208360000151846020015185604001516040516000815260200160405260405161227c9493929190614f9d565b6020604051602081039080840390855afa15801561229e573d6000803e3d6000fd5b5050506020604051035173ffffffffffffffffffffffffffffffffffffffff16601060009054906101000a900473ffffffffffffffffffffffffffffffffffffffff1673ffffffffffffffffffffffffffffffffffffffff1614612337576040517f08c379a000000000000000000000000000000000000000000000000000000000815260040161232e9061502e565b60405180910390fd5b50505050565b612348848484611673565b612354848484846126c3565b612393576040517f08c379a000000000000000000000000000000000000000000000000000000000815260040161238a906150c0565b60405180910390fd5b50505050565b60606123a4826114d2565b6000600a600084815260200190815260200160002080546123c490613fbd565b80601f01602080910402602001604051908101604052809291908181526020018280546123f090613fbd565b801561243d5780601f106124125761010080835404028352916020019161243d565b820191906000526020600020905b81548152906001019060200180831161242057829003601f168201915b50505050509050600061244e612160565b905060008151036124635781925050506124a6565b6000825111156124985780826040516020016124809291906150e0565b604051602081830303815290604052925050506124a6565b6124a18461284a565b925050505b919050565b6124b5828261198a565b5050565b60007f2a55205a000000000000000000000000000000000000000000000000000000007bffffffffffffffffffffffffffffffffffffffffffffffffffffffff1916827bffffffffffffffffffffffffffffffffffffffffffffffffffffffff1916148061252c575061252b826128b2565b5b9050919050565b60008073ffffffffffffffffffffffffffffffffffffffff1661255583612123565b73ffffffffffffffffffffffffffffffffffffffff1614159050919050565b6125808484848461292c565b50505050565b50505050565b612596828261103d565b61260d576125a381612a8a565b6125b18360001c6020612ab7565b6040516020016125c292919061519c565b6040516020818303038152906040526040517f08c379a000000000000000000000000000000000000000000000000000000000815260040161260491906137b9565b60405180910390fd5b5050565b600b6000828152602001908152602001600020600080820160006101000a81549073ffffffffffffffffffffffffffffffffffffffff02191690556000820160146101000a8154906bffffffffffffffffffffffff0219169055505050565b61267981612cf3565b6000600a6000838152602001908152602001600020805461269990613fbd565b9050146126c057600a600082815260200190815260200160002060006126bf91906135fd565b5b50565b60006126e48473ffffffffffffffffffffffffffffffffffffffff16612e41565b1561283d578373ffffffffffffffffffffffffffffffffffffffff1663150b7a0261270d61151d565b8786866040518563ffffffff1660e01b815260040161272f949392919061522b565b6020604051808303816000875af192505050801561276b57506040513d601f19601f82011682018060405250810190612768919061528c565b60015b6127ed573d806000811461279b576040519150601f19603f3d011682016040523d82523d6000602084013e6127a0565b606091505b5060008151036127e5576040517f08c379a00000000000000000000000000000000000000000000000000000000081526004016127dc906150c0565b60405180910390fd5b805181602001fd5b63150b7a0260e01b7bffffffffffffffffffffffffffffffffffffffffffffffffffffffff1916817bffffffffffffffffffffffffffffffffffffffffffffffffffffffff191614915050612842565b600190505b949350505050565b6060612855826114d2565b600061285f612160565b9050600081511161287f57604051806020016040528060008152506128aa565b8061288984612e64565b60405160200161289a9291906150e0565b6040516020818303038152906040525b915050919050565b60007f780e9d63000000000000000000000000000000000000000000000000000000007bffffffffffffffffffffffffffffffffffffffffffffffffffffffff1916827bffffffffffffffffffffffffffffffffffffffffffffffffffffffff19161480612925575061292482612f32565b5b9050919050565b61293884848484613014565b600181111561297c576040517f08c379a00000000000000000000000000000000000000000000000000000000081526004016129739061532b565b60405180910390fd5b6000829050600073ffffffffffffffffffffffffffffffffffffffff168573ffffffffffffffffffffffffffffffffffffffff16036129c3576129be8161313a565b612a02565b8373ffffffffffffffffffffffffffffffffffffffff168573ffffffffffffffffffffffffffffffffffffffff1614612a0157612a008582613183565b5b5b600073ffffffffffffffffffffffffffffffffffffffff168473ffffffffffffffffffffffffffffffffffffffff1603612a4457612a3f816132f0565b612a83565b8473ffffffffffffffffffffffffffffffffffffffff168473ffffffffffffffffffffffffffffffffffffffff1614612a8257612a8184826133c1565b5b5b5050505050565b6060612ab08273ffffffffffffffffffffffffffffffffffffffff16601460ff16612ab7565b9050919050565b606060006002836002612aca91906141d3565b612ad4919061534b565b67ffffffffffffffff811115612aed57612aec613ac3565b5b6040519080825280601f01601f191660200182016040528015612b1f5781602001600182028036833780820191505090505b5090507f300000000000000000000000000000000000000000000000000000000000000081600081518110612b5757612b5661442b565b5b60200101907effffffffffffffffffffffffffffffffffffffffffffffffffffffffffffff1916908160001a9053507f780000000000000000000000000000000000000000000000000000000000000081600181518110612bbb57612bba61442b565b5b60200101907effffffffffffffffffffffffffffffffffffffffffffffffffffffffffffff1916908160001a90535060006001846002612bfb91906141d3565b612c05919061534b565b90505b6001811115612ca5577f3031323334353637383961626364656600000000000000000000000000000000600f861660108110612c4757612c4661442b565b5b1a60f81b828281518110612c5e57612c5d61442b565b5b60200101907effffffffffffffffffffffffffffffffffffffffffffffffffffffffffffff1916908160001a905350600485901c945080612c9e9061537f565b9050612c08565b5060008414612ce9576040517f08c379a0000000000000000000000000000000000000000000000000000000008152600401612ce0906153f4565b60405180910390fd5b8091505092915050565b6000612cfe82610dcf565b9050612d0e816000846001612574565b612d1782610dcf565b90506004600083815260200190815260200160002060006101000a81549073ffffffffffffffffffffffffffffffffffffffff02191690556001600360008373ffffffffffffffffffffffffffffffffffffffff1673ffffffffffffffffffffffffffffffffffffffff168152602001908152602001600020600082825403925050819055506002600083815260200190815260200160002060006101000a81549073ffffffffffffffffffffffffffffffffffffffff021916905581600073ffffffffffffffffffffffffffffffffffffffff168273ffffffffffffffffffffffffffffffffffffffff167fddf252ad1be2c89b69c2b068fc378daa952ba7f163c4a11628f55a4df523b3ef60405160405180910390a4612e3d816000846001612586565b5050565b6000808273ffffffffffffffffffffffffffffffffffffffff163b119050919050565b606060006001612e7384613440565b01905060008167ffffffffffffffff811115612e9257612e91613ac3565b5b6040519080825280601f01601f191660200182016040528015612ec45781602001600182028036833780820191505090505b509050600082602001820190505b600115612f27578080600190039150507f3031323334353637383961626364656600000000000000000000000000000000600a86061a8153600a8581612f1b57612f1a614215565b5b04945060008503612ed2575b819350505050919050565b60007f80ac58cd000000000000000000000000000000000000000000000000000000007bffffffffffffffffffffffffffffffffffffffffffffffffffffffff1916827bffffffffffffffffffffffffffffffffffffffffffffffffffffffff19161480612ffd57507f5b5e139f000000000000000000000000000000000000000000000000000000007bffffffffffffffffffffffffffffffffffffffffffffffffffffffff1916827bffffffffffffffffffffffffffffffffffffffffffffffffffffffff1916145b8061300d575061300c82613593565b5b9050919050565b600181111561313457600073ffffffffffffffffffffffffffffffffffffffff168473ffffffffffffffffffffffffffffffffffffffff16146130a85780600360008673ffffffffffffffffffffffffffffffffffffffff1673ffffffffffffffffffffffffffffffffffffffff16815260200190815260200160002060008282546130a09190615414565b925050819055505b600073ffffffffffffffffffffffffffffffffffffffff168373ffffffffffffffffffffffffffffffffffffffff16146131335780600360008573ffffffffffffffffffffffffffffffffffffffff1673ffffffffffffffffffffffffffffffffffffffff168152602001908152602001600020600082825461312b919061534b565b925050819055505b5b50505050565b6008805490506009600083815260200190815260200160002081905550600881908060018154018082558091505060019003906000526020600020016000909190919091505550565b6000600161319084610e64565b61319a9190615414565b905060006007600084815260200190815260200160002054905081811461327f576000600660008673ffffffffffffffffffffffffffffffffffffffff1673ffffffffffffffffffffffffffffffffffffffff168152602001908152602001600020600084815260200190815260200160002054905080600660008773ffffffffffffffffffffffffffffffffffffffff1673ffffffffffffffffffffffffffffffffffffffff168152602001908152602001600020600084815260200190815260200160002081905550816007600083815260200190815260200160002081905550505b6007600084815260200190815260200160002060009055600660008573ffffffffffffffffffffffffffffffffffffffff1673ffffffffffffffffffffffffffffffffffffffff16815260200190815260200160002060008381526020019081526020016000206000905550505050565b600060016008805490506133049190615414565b90506000600960008481526020019081526020016000205490506000600883815481106133345761333361442b565b5b9060005260206000200154905080600883815481106133565761335561442b565b5b9060005260206000200181905550816009600083815260200190815260200160002081905550600960008581526020019081526020016000206000905560088054806133a5576133a4615448565b5b6001900381819060005260206000200160009055905550505050565b60006133cc83610e64565b905081600660008573ffffffffffffffffffffffffffffffffffffffff1673ffffffffffffffffffffffffffffffffffffffff168152602001908152602001600020600083815260200190815260200160002081905550806007600084815260200190815260200160002081905550505050565b600080600090507a184f03e93ff9f4daa797ed6e38ed64bf6a1f010000000000000000831061349e577a184f03e93ff9f4daa797ed6e38ed64bf6a1f010000000000000000838161349457613493614215565b5b0492506040810190505b6d04ee2d6d415b85acef810000000083106134db576d04ee2d6d415b85acef810000000083816134d1576134d0614215565b5b0492506020810190505b662386f26fc10000831061350a57662386f26fc100008381613500576134ff614215565b5b0492506010810190505b6305f5e1008310613533576305f5e100838161352957613528614215565b5b0492506008810190505b612710831061355857612710838161354e5761354d614215565b5b0492506004810190505b6064831061357b576064838161357157613570614215565b5b0492506002810190505b600a831061358a576001810190505b80915050919050565b60007f01ffc9a7000000000000000000000000000000000000000000000000000000007bffffffffffffffffffffffffffffffffffffffffffffffffffffffff1916827bffffffffffffffffffffffffffffffffffffffffffffffffffffffff1916149050919050565b50805461360990613fbd565b6000825580601f1061361b575061363a565b601f016020900490600052602060002090810190613639919061363d565b5b50565b5b8082111561365657600081600090555060010161363e565b5090565b6000604051905090565b600080fd5b600080fd5b60007fffffffff0000000000000000000000000000000000000000000000000000000082169050919050565b6136a38161366e565b81146136ae57600080fd5b50565b6000813590506136c08161369a565b92915050565b6000602082840312156136dc576136db613664565b5b60006136ea848285016136b1565b91505092915050565b60008115159050919050565b613708816136f3565b82525050565b600060208201905061372360008301846136ff565b92915050565b600081519050919050565b600082825260208201905092915050565b60005b83811015613763578082015181840152602081019050613748565b60008484015250505050565b6000601f19601f8301169050919050565b600061378b82613729565b6137958185613734565b93506137a5818560208601613745565b6137ae8161376f565b840191505092915050565b600060208201905081810360008301526137d38184613780565b905092915050565b6000819050919050565b6137ee816137db565b81146137f957600080fd5b50565b60008135905061380b816137e5565b92915050565b60006020828403121561382757613826613664565b5b6000613835848285016137fc565b91505092915050565b600073ffffffffffffffffffffffffffffffffffffffff82169050919050565b60006138698261383e565b9050919050565b6138798161385e565b82525050565b60006020820190506138946000830184613870565b92915050565b6138a38161385e565b81146138ae57600080fd5b50565b6000813590506138c08161389a565b92915050565b600080604083850312156138dd576138dc613664565b5b60006138eb858286016138b1565b92505060206138fc858286016137fc565b9150509250929050565b61390f816137db565b82525050565b600060208201905061392a6000830184613906565b92915050565b60008060006060848603121561394957613948613664565b5b6000613957868287016138b1565b9350506020613968868287016138b1565b9250506040613979868287016137fc565b9150509250925092565b6000819050919050565b61399681613983565b81146139a157600080fd5b50565b6000813590506139b38161398d565b92915050565b6000602082840312156139cf576139ce613664565b5b60006139dd848285016139a4565b91505092915050565b6139ef81613983565b82525050565b6000602082019050613a0a60008301846139e6565b92915050565b60008060408385031215613a2757613a26613664565b5b6000613a35858286016137fc565b9250506020613a46858286016137fc565b9150509250929050565b6000604082019050613a656000830185613870565b613a726020830184613906565b9392505050565b60008060408385031215613a9057613a8f613664565b5b6000613a9e858286016139a4565b9250506020613aaf858286016138b1565b9150509250929050565b600080fd5b600080fd5b7f4e487b7100000000000000000000000000000000000000000000000000000000600052604160045260246000fd5b613afb8261376f565b810181811067ffffffffffffffff82111715613b1a57613b19613ac3565b5b80604052505050565b6000613b2d61365a565b9050613b398282613af2565b919050565b600067ffffffffffffffff821115613b5957613b58613ac3565b5b613b628261376f565b9050602081019050919050565b82818337600083830152505050565b6000613b91613b8c84613b3e565b613b23565b905082815260208101848484011115613bad57613bac613abe565b5b613bb8848285613b6f565b509392505050565b600082601f830112613bd557613bd4613ab9565b5b8135613be5848260208601613b7e565b91505092915050565b60006bffffffffffffffffffffffff82169050919050565b613c0f81613bee565b8114613c1a57600080fd5b50565b600081359050613c2c81613c06565b92915050565b60008060008060808587031215613c4c57613c4b613664565b5b6000613c5a878288016138b1565b9450506020613c6b878288016138b1565b935050604085013567ffffffffffffffff811115613c8c57613c8b613669565b5b613c9887828801613bc0565b9250506060613ca987828801613c1d565b91505092959194509250565b600060208284031215613ccb57613cca613664565b5b600082013567ffffffffffffffff811115613ce957613ce8613669565b5b613cf584828501613bc0565b91505092915050565b600060208284031215613d1457613d13613664565b5b6000613d22848285016138b1565b91505092915050565b600080fd5b600060808284031215613d4657613d45613d2b565b5b81905092915050565b600080600060c08486031215613d6857613d67613664565b5b600084013567ffffffffffffffff811115613d8657613d85613669565b5b613d9286828701613bc0565b9350506020613da386828701613c1d565b9250506040613db486828701613d30565b9150509250925092565b613dc7816136f3565b8114613dd257600080fd5b50565b600081359050613de481613dbe565b92915050565b60008060408385031215613e0157613e00613664565b5b6000613e0f858286016138b1565b9250506020613e2085828601613dd5565b9150509250929050565b600067ffffffffffffffff821115613e4557613e44613ac3565b5b613e4e8261376f565b9050602081019050919050565b6000613e6e613e6984613e2a565b613b23565b905082815260208101848484011115613e8a57613e89613abe565b5b613e95848285613b6f565b509392505050565b600082601f830112613eb257613eb1613ab9565b5b8135613ec2848260208601613e5b565b91505092915050565b60008060008060808587031215613ee557613ee4613664565b5b6000613ef3878288016138b1565b9450506020613f04878288016138b1565b9350506040613f15878288016137fc565b925050606085013567ffffffffffffffff811115613f3657613f35613669565b5b613f4287828801613e9d565b91505092959194509250565b60008060408385031215613f6557613f64613664565b5b6000613f73858286016138b1565b9250506020613f84858286016138b1565b9150509250929050565b7f4e487b7100000000000000000000000000000000000000000000000000000000600052602260045260246000fd5b60006002820490506001821680613fd557607f821691505b602082108103613fe857613fe7613f8e565b5b50919050565b7f4552433732313a20617070726f76616c20746f2063757272656e74206f776e6560008201527f7200000000000000000000000000000000000000000000000000000000000000602082015250565b600061404a602183613734565b915061405582613fee565b604082019050919050565b600060208201905081810360008301526140798161403d565b9050919050565b7f4552433732313a20617070726f76652063616c6c6572206973206e6f7420746f60008201527f6b656e206f776e6572206f7220617070726f76656420666f7220616c6c000000602082015250565b60006140dc603d83613734565b91506140e782614080565b604082019050919050565b6000602082019050818103600083015261410b816140cf565b9050919050565b7f4552433732313a2063616c6c6572206973206e6f7420746f6b656e206f776e6560008201527f72206f7220617070726f76656400000000000000000000000000000000000000602082015250565b600061416e602d83613734565b915061417982614112565b604082019050919050565b6000602082019050818103600083015261419d81614161565b9050919050565b7f4e487b7100000000000000000000000000000000000000000000000000000000600052601160045260246000fd5b60006141de826137db565b91506141e9836137db565b92508282026141f7816137db565b9150828204841483151761420e5761420d6141a4565b5b5092915050565b7f4e487b7100000000000000000000000000000000000000000000000000000000600052601260045260246000fd5b600061424f826137db565b915061425a836137db565b92508261426a57614269614215565b5b828204905092915050565b7f455243373231456e756d657261626c653a206f776e657220696e646578206f7560008201527f74206f6620626f756e6473000000000000000000000000000000000000000000602082015250565b60006142d1602b83613734565b91506142dc82614275565b604082019050919050565b60006020820190508181036000830152614300816142c4565b9050919050565b7f416363657373436f6e74726f6c3a2063616e206f6e6c792072656e6f756e636560008201527f20726f6c657320666f722073656c660000000000000000000000000000000000602082015250565b6000614363602f83613734565b915061436e82614307565b604082019050919050565b6000602082019050818103600083015261439281614356565b9050919050565b7f455243373231456e756d657261626c653a20676c6f62616c20696e646578206f60008201527f7574206f6620626f756e64730000000000000000000000000000000000000000602082015250565b60006143f5602c83613734565b915061440082614399565b604082019050919050565b60006020820190508181036000830152614424816143e8565b9050919050565b7f4e487b7100000000000000000000000000000000000000000000000000000000600052603260045260246000fd5b60008190508160005260206000209050919050565b60006020601f8301049050919050565b600082821b905092915050565b6000600883026144bc7fffffffffffffffffffffffffffffffffffffffffffffffffffffffffffffffff8261447f565b6144c6868361447f565b95508019841693508086168417925050509392505050565b6000819050919050565b60006145036144fe6144f9846137db565b6144de565b6137db565b9050919050565b6000819050919050565b61451d836144e8565b6145316145298261450a565b84845461448c565b825550505050565b600090565b614546614539565b614551818484614514565b505050565b5b818110156145755761456a60008261453e565b600181019050614557565b5050565b601f8211156145ba5761458b8161445a565b6145948461446f565b810160208510156145a3578190505b6145b76145af8561446f565b830182614556565b50505b505050565b600082821c905092915050565b60006145dd600019846008026145bf565b1980831691505092915050565b60006145f683836145cc565b9150826002028217905092915050565b61460f82613729565b67ffffffffffffffff81111561462857614627613ac3565b5b6146328254613fbd565b61463d828285614579565b600060209050601f831160018114614670576000841561465e578287015190505b61466885826145ea565b8655506146d0565b601f19841661467e8661445a565b60005b828110156146a657848901518255600182019150602085019450602081019050614681565b868310156146c357848901516146bf601f8916826145cc565b8355505b6001600288020188555050505b505050505050565b7f4552433732313a20696e76616c696420746f6b656e2049440000000000000000600082015250565b600061470e601883613734565b9150614719826146d8565b602082019050919050565b6000602082019050818103600083015261473d81614701565b9050919050565b7f4552433732313a2061646472657373207a65726f206973206e6f74206120766160008201527f6c6964206f776e65720000000000000000000000000000000000000000000000602082015250565b60006147a0602983613734565b91506147ab82614744565b604082019050919050565b600060208201905081810360008301526147cf81614793565b9050919050565b7f4e6f6e6365203a20496e76616c6964204e6f6e63650000000000000000000000600082015250565b600061480c601583613734565b9150614817826147d6565b602082019050919050565b6000602082019050818103600083015261483b816147ff565b9050919050565b600080fd5b600060ff82169050919050565b61485d81614847565b811461486857600080fd5b50565b60008135905061487a81614854565b92915050565b60006080828403121561489657614895614842565b5b6148a06080613b23565b905060006148b08482850161486b565b60008301525060206148c4848285016139a4565b60208301525060406148d8848285016139a4565b60408301525060606148ec848285016137fc565b60608301525092915050565b60006080828403121561490e5761490d613664565b5b600061491c84828501614880565b91505092915050565b7f4f776e61626c653a206e6577206f776e657220697320746865207a65726f206160008201527f6464726573730000000000000000000000000000000000000000000000000000602082015250565b6000614981602683613734565b915061498c82614925565b604082019050919050565b600060208201905081810360008301526149b081614974565b9050919050565b7f4552433732313a207472616e736665722066726f6d20696e636f72726563742060008201527f6f776e6572000000000000000000000000000000000000000000000000000000602082015250565b6000614a13602583613734565b9150614a1e826149b7565b604082019050919050565b60006020820190508181036000830152614a4281614a06565b9050919050565b7f4552433732313a207472616e7366657220746f20746865207a65726f2061646460008201527f7265737300000000000000000000000000000000000000000000000000000000602082015250565b6000614aa5602483613734565b9150614ab082614a49565b604082019050919050565b60006020820190508181036000830152614ad481614a98565b9050919050565b7f4552433732313a20617070726f766520746f2063616c6c657200000000000000600082015250565b6000614b11601983613734565b9150614b1c82614adb565b602082019050919050565b60006020820190508181036000830152614b4081614b04565b9050919050565b7f4552433732313a206d696e7420746f20746865207a65726f2061646472657373600082015250565b6000614b7d602083613734565b9150614b8882614b47565b602082019050919050565b60006020820190508181036000830152614bac81614b70565b9050919050565b7f4552433732313a20746f6b656e20616c7265616479206d696e74656400000000600082015250565b6000614be9601c83613734565b9150614bf482614bb3565b602082019050919050565b60006020820190508181036000830152614c1881614bdc565b9050919050565b7f45524337323155524953746f726167653a2055524920736574206f66206e6f6e60008201527f6578697374656e7420746f6b656e000000000000000000000000000000000000602082015250565b6000614c7b602e83613734565b9150614c8682614c1f565b604082019050919050565b60006020820190508181036000830152614caa81614c6e565b9050919050565b7f455243323938313a20726f79616c7479206665652077696c6c2065786365656460008201527f2073616c65507269636500000000000000000000000000000000000000000000602082015250565b6000614d0d602a83613734565b9150614d1882614cb1565b604082019050919050565b60006020820190508181036000830152614d3c81614d00565b9050919050565b7f455243323938313a20496e76616c696420706172616d65746572730000000000600082015250565b6000614d79601b83613734565b9150614d8482614d43565b602082019050919050565b60006020820190508181036000830152614da881614d6c565b9050919050565b6000614dca614dc5614dc08461383e565b6144de565b61383e565b9050919050565b6000614ddc82614daf565b9050919050565b6000614dee82614dd1565b9050919050565b60008160601b9050919050565b6000614e0d82614df5565b9050919050565b6000614e1f82614e02565b9050919050565b614e37614e3282614de3565b614e14565b82525050565b614e4e614e498261385e565b614e14565b82525050565b600081905092915050565b6000614e6a82613729565b614e748185614e54565b9350614e84818560208601613745565b80840191505092915050565b6000819050919050565b614eab614ea6826137db565b614e90565b82525050565b6000614ebd8287614e26565b601482019150614ecd8286614e3d565b601482019150614edd8285614e5f565b9150614ee98284614e9a565b60208201915081905095945050505050565b7f19457468657265756d205369676e6564204d6573736167653a0a333200000000600082015250565b6000614f31601c83614e54565b9150614f3c82614efb565b601c82019050919050565b6000819050919050565b614f62614f5d82613983565b614f47565b82525050565b6000614f7382614f24565b9150614f7f8284614f51565b60208201915081905092915050565b614f9781614847565b82525050565b6000608082019050614fb260008301876139e6565b614fbf6020830186614f8e565b614fcc60408301856139e6565b614fd960608301846139e6565b95945050505050565b7f4f776e6572207369676e20766572696669636174696f6e206661696c65640000600082015250565b6000615018601e83613734565b915061502382614fe2565b602082019050919050565b600060208201905081810360008301526150478161500b565b9050919050565b7f4552433732313a207472616e7366657220746f206e6f6e20455243373231526560008201527f63656976657220696d706c656d656e7465720000000000000000000000000000602082015250565b60006150aa603283613734565b91506150b58261504e565b604082019050919050565b600060208201905081810360008301526150d98161509d565b9050919050565b60006150ec8285614e5f565b91506150f88284614e5f565b91508190509392505050565b7f416363657373436f6e74726f6c3a206163636f756e7420000000000000000000600082015250565b600061513a601783614e54565b915061514582615104565b601782019050919050565b7f206973206d697373696e6720726f6c6520000000000000000000000000000000600082015250565b6000615186601183614e54565b915061519182615150565b601182019050919050565b60006151a78261512d565b91506151b38285614e5f565b91506151be82615179565b91506151ca8284614e5f565b91508190509392505050565b600081519050919050565b600082825260208201905092915050565b60006151fd826151d6565b61520781856151e1565b9350615217818560208601613745565b6152208161376f565b840191505092915050565b60006080820190506152406000830187613870565b61524d6020830186613870565b61525a6040830185613906565b818103606083015261526c81846151f2565b905095945050505050565b6000815190506152868161369a565b92915050565b6000602082840312156152a2576152a1613664565b5b60006152b084828501615277565b91505092915050565b7f455243373231456e756d657261626c653a20636f6e736563757469766520747260008201527f616e7366657273206e6f7420737570706f727465640000000000000000000000602082015250565b6000615315603583613734565b9150615320826152b9565b604082019050919050565b6000602082019050818103600083015261534481615308565b9050919050565b6000615356826137db565b9150615361836137db565b9250828201905080821115615379576153786141a4565b5b92915050565b600061538a826137db565b91506000820361539d5761539c6141a4565b5b600182039050919050565b7f537472696e67733a20686578206c656e67746820696e73756666696369656e74600082015250565b60006153de602083613734565b91506153e9826153a8565b602082019050919050565b6000602082019050818103600083015261540d816153d1565b9050919050565b600061541f826137db565b915061542a836137db565b9250828203905081811115615442576154416141a4565b5b92915050565b7f4e487b7100000000000000000000000000000000000000000000000000000000600052603160045260246000fdfea26469706673582212203815e91ecb60cbbbe22403eb9927821b7ab10a2d18dac076eb233013e5b046e864736f6c63430008180033",
  "linkReferences": {},
  "deployedLinkReferences": {}
}